:1000000057C0000073C0000071C000006FC0000046
:100010006DC000006BC00000D0C5000067C00000CC
:1000200065C0000063C00000AFC500005FC00000F5
:100030005DC000005BC0000059C0000037C5000073
:1000400055C0000053C0000051C000004FC0000068
:100050004DC000004BC0000049C0000047C0000078
:1000600045C0000043C0000041C000003FC0000088
:100070003DC000003BC0000040C5000037C000008C
:1000800035C0000033C0000031C000006B087208AA
:10009000740876087D08880891089308A008B908B4
:1000A000C008C508C708CE08D908E208E408F10866
:1000B00011241FBECFEFD0E1DEBFCDBF11E0A0E025
:1000C000B1E0E8E2F4E100E00BBF02C007900D925E
:1000D000AE3FB107D9F722E0AEEFB1E001C01D920B
:1000E000A53BB207E1F797D50C94120A89CF80643B
:1000F00087B986B1876886B90895369A3499FECF54
:1001000084B125B190E0922B0895CF93DF939C01A9
:10011000FB0168EE73E00E94A209605D6083C90183
:1001200064E670E00E94A209CB01CAE0D0E0BE0103
:100130000E94A209805D8183C901BE010E94A209BB
:10014000282FCB01BE010E94A209805D8283205D21
:1001500023831482DF91CF9108950E94480942E0E1
:100160006FEF71E083E892E09FD18FE99FE0019704
:10017000F1F700C0000080918502909186024E97B1
:1001800008F58091FE0181110EC080E3E8D79FEF52
:1001900021EE84E0915020408040E1F700C0000053
:1001A00081E08093FE01209183023091840280914E
:1001B0008702909188028217930710F487E301C0A9
:1001C00083E3CDC781E3CBD71092FE01089510924F
:1001D0009B00EAE9F0E0808188698083EDE9F0E046
:1001E0008081866080831092980087E680939900D2
:1001F000089590919B0095FFFCCF80939C000895FB
:1002000080919B0087FFFCCF80919C000895FC01AA
:100210007183608353834283248381E08583FB0160
:10022000308181E090E001C0880F2A95EAF780953F
:10023000832380830895FC01A281B3812C9181E006
:1002400090E0048002C0880F991F0A94E2F782238D
:10025000958181110EC09130D9F42FEF80E792E0A3
:10026000215080409040E1F700C0000015828BE0F3
:10027000089591110DC02FEF80E792E0215080404A
:100280009040E1F700C0000081E085838CE0089594
:100290008AE0089582B182B91D9A8AB78C608ABFBC
:1002A00089B7806289BF0895A79A0895AF9A089583
:1002B000AF98089533D0813009F4A7C1C8C1CF9257
:1002C000DF92EF92FF920F931F93CF93DF936C0116
:1002D000C0910402D0E085E0E82E82E0F82E00E034
:1002E00010E00C171D0774F445E050E0B601C7019B
:1002F0000E94F00925E0E20EF11C892B29F00F5F26
:100300001F4FEFCF80E001C081E0DF91CF911F91BF
:100310000F91FF90EF90DF90CF9008950F931F9370
:10032000CF93C0910402C431B0F48C01C8DF8111B5
:1003300012C085E08C9FD0011124AB5FBD4FF80146
:1003400001900D928A95E1F7809104028F5F80936E
:10035000040281E001C080E0CF911F910F910895C8
:10036000CF92DF92EF92FF920F931F93CF93DF9381
:100370006C010091040210E085E0E82E82E0F82E86
:10038000C0E0D0E0C017D1076CF545E050E0B60101
:10039000C7010E94F00925E0E20EF11C892B01F54E
:1003A00085E08C9FD0018D9FB00D1124AB5FBD4FB8
:1003B0002196809104029D012B5F3F4F482F50E012
:1003C000C417D50744F485E0F90101900D928A9590
:1003D000E1F7D901EDCF81508093040281E003C0A1
:1003E0002196D0CF80E0DF91CF911F910F91FF90A8
:1003F000EF90DF90CF900895B3DF813009F449C1C9
:100400006AC1CF93DF939C01FB0168EE73E09AD73A
:10041000605D6083C90164E670E094D7CB01CAE0F7
:10042000D0E0BE018FD7805D8183C901BE018AD72C
:10043000282FCB01BE0186D7805D8283205D238378
:100440001482DF91CF910895CF93DF93EC0140E1C7
:1004500051E060E080E0D4D2CE01DF91CF91BCC208
:10046000CF93DF93EC0144E151E060E081E0C8D23A
:10047000CE01DF91CF91B0C2CF93DF93EC0148E181
:1004800051E068E081E0BCD2CE01DF91CF91A4C2FF
:10049000282FCB01243029F0263021F0223019F406
:1004A000D3CFDECFE9CF0895CF92DF92EF92FF92C4
:1004B0000F931F93CF93DF936B01C42F8C01D6E072
:1004C000D40F6C2FC801EAD6B601F8018081918162
:1004D0000E5F1F4F96DFB6018C2FDADFCE5FCD1394
:1004E000F0CFDF91CF911F910F91FF90EF90DF90B0
:1004F000CF90089594C246E050E06CE171E089E845
:1005000092E082D7892B51F068E271E089E892E0AD
:1005100074D749E852E060E080E072C2089546E096
:1005200050E065E371E089E892E06ED7892B51F0E5
:100530006EE371E089E892E060D749E852E060E05C
:1005400080E05EC2089546E050E06BE471E089E827
:1005500092E05AD7892B51F067E571E089E892E083
:100560004CD749E852E060E080E04AC20895A4D147
:10057000813029F018F0823019F00895BCCFCFCF28
:10058000E2CF44E050E064E671E089E892E03CD7D5
:10059000892BC1F069E671E089E892E02ED749E83D
:1005A00052E060E081E02CD22FEF8DE399E42150FE
:1005B00080409040E1F700C0000040E051E060E082
:1005C00081E01EC2089544E050E060EA71E089E8ED
:1005D00092E01AD7892BC1F067E771E089E892E0D1
:1005E0000CD749E852E060E081E00AD22FEF8DE3BA
:1005F00099E4215080409040E1F700C0000040E0C5
:1006000051E060E081E0FCC1089545E050E065E81C
:1006100071E089E892E0F8D6892BC1F06BE871E0CF
:1006200089E892E0EAD649E852E060E081E0E8D16A
:100630002FEF8DE399E4215080409040E1F700C016
:10064000000040E051E060E081E0DAC108954AE056
:1006500050E06AE971E089E892E0D6D6892BC1F0D2
:1006600065EA71E089E892E0C8D649E852E060E0C6
:1006700081E0C6D12FEF8DE399E421508040904076
:10068000E1F700C0000040E051E060E081E0B8C167
:10069000089547E050E064EB71E089E892E0B4D659
:1006A000892BC1F06CEB71E089E892E0A6D649E8AD
:1006B00052E060E081E0A4D12FEF8DE399E4215076
:1006C00080409040E1F700C0000040E051E060E071
:1006D00081E096C108954CE050E06CEC71E089E84F
:1006E00092E092D6892BC1F069ED71E089E892E041
:1006F00084D649E852E060E081E082D12FEF8DE3BB
:1007000099E4215080409040E1F700C0000040E0B3
:1007100051E060E081E074C1089520E049E350E0D9
:100720006AE370E087EA92E072DD44C30F931F939F
:10073000A6D500917102109172022091730230913E
:100740007402DC01CB01801B910BA20BB30BC2978F
:10075000A105B10538F193D56093710270937202CF
:100760008093730290937402A7D0813059F018F0EF
:10077000823079F017C087EA92E05DDD8C3091F429
:1007800081E00DC087EA92E056DD8C3059F482E0BA
:1007900006C087EA92E04FDD8C3021F480E01F91A3
:1007A0000F9187C01F910F9108950F931F93CF93BF
:1007B000DF9300D000D01F92CDB7DEB760D5009197
:1007C0006D0210916E0220916F0230917002DC0177
:1007D000CB01801B910BA20BB30B883E9340A1056C
:1007E000B10520F14CD560936D0270936E02809339
:1007F0006F0290937002BE016F5F7F4F82E5D1D38D
:100800008130A1F4CE010196FCD356D0813059F04D
:1008100030F0823059F4CE010196EEDD07C0CE01F2
:1008200001964DD003C0CE01019644DD0F900F908C
:100830000F900F900F90DF91CF911F910F9108951E
:1008400075DFB3CF0F931F931AD5009169021091F2
:100850006A0220916B0230916C02DC01CB01801B9B
:10086000910BA20BB30BC297A105B105F8F007D508
:100870006093690270936A0280936B0290936C029A
:1008800080917502882319F0813041F00FC087EA0A
:1008900092E0D1DC8C3051F481E006C087EA92E02E
:1008A000CADC8C3019F482E0809375021F910F919D
:1008B0000895809376020895809176020895CF93EB
:1008C000FEDCC82F813029F45CDEC0937702CF9123
:1008D0000895CF9178CE81B3836081BB84E6809305
:1008E000700010927100089584EA809374008091E2
:1008F000740087FFFCCF08958093730084E8809391
:1009000074008091740087FFFCCF0895CF93DF932C
:10091000D82FC62FE9DF8D2FEFDF8C2FEDDF84E995
:1009200080937400DF91CF910895609178026E7F7B
:10093000609378028EE4EACF609178026160609300
:1009400078028EE4E3CF609178026D7F6093780245
:100950008EE4DCCF609178026460609378028EE46C
:10096000D5DF8FE99FE00197F1F700C000000895FF
:10097000609178026B7F609378028EE4C7DF8FE925
:100980009FE00197F1F700C000000895CF93C82FB2
:10099000E1DF609178026F70C07F6C2B609378020A
:1009A0008EE4B4DFCF91E4CFCF93C82FEFDF8C2F4D
:1009B0008295807FCF91EACFCF93C82FB6DFC3DF78
:1009C0008C2FCF91F1CFCF93C82FB6DFBCDF8C2F08
:1009D000CF91EACF81E0F0CFCF93DF93EC01899103
:1009E000882311F0F0DFFBCFDF91CF910895817064
:1009F0006F7090E4899F600D1124862F8058DCCFA2
:100A0000CF93DF93EA01F3DFCE01DF91CF91E4CF03
:100A1000609178026860609378028EE477CF5BDF44
:100A2000F7DF8FE59AEE0197F1F700C000007DDF58
:100A30008ADF80E3ABDF8FE19EE40197F1F700C02E
:100A4000000080E3A3DF8FE99FE00197F1F700C08A
:100A5000000080E39BDF80E299DF88E2A5DF88E089
:100A6000A3DF81E0A1DF86E09FDF8CE09DCF8AB32A
:100A70008C6F8ABB08958BB38C638BBB0895809178
:100A8000860090918700892B49F480918400909191
:100A90008500892B19F48BB3806C02C08BB38F73E4
:100AA0008BBB08958BB3837C8BBB08951F920F92F1
:100AB0000FB60F9211240BB60F922F933F934F93C3
:100AC0005F936F937F938F939F93AF93BF93EF93B6
:100AD000FF93C1D3FF91EF91BF91AF919F918F9100
:100AE0007F916F915F914F913F912F910F900BBE2E
:100AF0000F900FBE0F901F9018951F920F920FB678
:100B00000F9211240BB60F922F933F934F935F9345
:100B10006F937F938F939F93AF93BF93EF93FF93C5
:100B2000809175028230E9F48091B00281110AC08F
:100B300067DB8093B3028091B302C3D28091B3028A
:100B400058DB0FC05DDB8093B3028091B30251DBB1
:100B50008091B302803329F48091B302B2D2109213
:100B6000B002FF91EF91BF91AF919F918F917F91D3
:100B70006F915F914F913F912F910F900BBE0F900E
:100B80000FBE0F901F9018951F920F920FB60F92E5
:100B900011248F939F938091AD029091AE020196A4
:100BA0009093AE028093AD0287E084BD9F918F91B8
:100BB0000F900FBE0F901F9018951F920F920FB6B7
:100BC0000F9211240BB60F922F933F934F935F9385
:100BD0006F937F938F939F93AF93BF93EF93FF9305
:100BE00080917502823021F481E08093B002F2DEC0
:100BF000FF91EF91BF91AF919F918F917F916F91F5
:100C00005F914F913F912F910F900BBE0F900FBEB0
:100C10000F901F9018956EDCF3D23CDB7EDDD7DAA7
:100C200049D225DF41DB7894C1E0D7E08091B4025E
:100C3000811114C005DE9BDC80917702882371F05E
:100C4000C093B402C7DE32DB2FEF89E698E1215072
:100C500080409040E1F700C000002ADB8091B402A0
:100C6000813021F78091AF02811153C080917502CC
:100C7000811102C0E7DDFACF80917902811105C0B0
:100C800081E035DAC0937902CAD237DA9093B202A2
:100C90008093B1026AE772E038DA49EE51E060E031
:100CA00080E0AEDE8AE792E097DE8091AD0290911F
:100CB000AE028938934140F11092AE021092AD021B
:100CC000D4BD8091B1029091B2028D32914058F41E
:100CD00044E651E060E081E093DEC093AF02109201
:100CE0007902A6D205C040EA51E060E081E088DEEA
:100CF000DDDA8FEF9DE329E4815090402040E1F759
:100D000000C00000D5DA66DE8091B402813009F0BF
:100D10008DCF8091AF02813009F088CF809175022C
:100D2000813011F48FDDFACF80917902811108C0F2
:100D3000DED9C093790241EF51E060E080E060DEEF
:100D4000DCD98C018FE99FE00197F1F700C000002A
:100D500096DE083C110510F48EDE01C0A3DE809102
:100D6000B002813009F062CFF8D960CFCF93DF9322
:100D7000C82FD62F80E089D18C2F880F8E7780D115
:100D80008D2F7ED180E0DF91CF918AC1CF93C82F84
:100D900080E07BD18C2F880F8E77806871D180E0C6
:100DA0006FD1C82F80E07CD18C2FCF9108956FE058
:100DB00081E0DCCF5CD1FBDF6DE88AE2D7DF6EE358
:100DC0008BE2D4DF6EE18CE2D1DF60E08DE2CEDF3A
:100DD00060E485E1CBDF6DE381E1C8DF84E1D6DF4C
:100DE000982F937021F4682F636084E1BFCF08953A
:100DF0003F924F925F926F927F928F929F92AF92AB
:100E0000BF92CF92DF92EF92FF920F931F93CF93F7
:100E1000DF93D82E5B01842E7901E8018CE0D8168F
:100E200031F0EEE0DE1641F0312CC12C09C070E348
:100E3000372EE7E7CE2E04C050E1352E62E1C62EF4
:100E400084E0A4DF682F6F7784E090DF8AE09EDF84
:100E5000682F60688AE08ADF60E081E087DF8501D3
:100E6000412C512C3201912CA12CB12C4814590445
:100E70006A047B0458F4F80161918F0189E076DF00
:100E8000FFEF4F1A5F0A6F0A7F0AF0CF6D2D81E0E6
:100E90006DDF8CE0D81206C08DE078DF682F6068C7
:100EA0008DE064DF40ED842E47E0942EA12CB12C20
:100EB000132D116084E06ADF082FE1E08E1A91089B
:100EC000A108B10819F0812F8023A1F38DE05EDF26
:100ED000682F6F778DE04ADF89288A288B2811F4E4
:100EE00003E04CC086E052DF8B71D1F78C2D81700E
:100EF000C82EC02211F002E001C001E0FCE0DF12C8
:100F00003DC08AE043DF182F8CE040DF282F277098
:100F1000812F90E049F0019733E0880F991F3A95AF
:100F2000E1F7820F911D05C023E0880F991F2A95D4
:100F3000E1F7092E000CAA0BBB0B88839983AA83C7
:100F4000BB83112321F0113118F010E101C011E031
:100F5000E701812C912C5401C12ED12CE12CF12CD4
:100F60008C149D04AE04BF0448F489E00FDF89931C
:100F70008FEF881A980AA80AB80AF2CF802FDF915B
:100F8000CF911F910F91FF90EF90DF90CF90BF9086
:100F9000AF909F908F907F906F905F904F903F9019
:100FA0000895EF92FF920F931F93CF93DF9300D09A
:100FB00000D0CDB7DEB7182F7B0167E08DE0D6DE1D
:100FC000F70110838E010F5F1F4F970141E0B701BA
:100FD0008CE00EDF813049F449815A816B817C813C
:100FE000403151056105710509F083E00F900F90C4
:100FF0000F900F90DF91CF911F910F91FF90EF9085
:101000000895EF92FF920F931F93CF93DF9300D039
:1010100000D0CDB7DEB77C0160E08DE0A7DE83E9CC
:10102000F701808380E281838E010F5F1F4F97015C
:1010300042E0B7018CE0DCDE813071F4F70197010A
:101040002C5F3F4F90E041919427E217F307D9F7C7
:10105000F7012481921383E00F900F900F900F906F
:10106000DF91CF911F910F91FF90EF90089587B37B
:10107000876087BBBB988DB180658DB9689A0895EC
:101080008FB9779BFECF8FB1089598B321E030E000
:1010900001C0220F8A95EAF72095292328BB0895DD
:1010A00098B321E030E001C0220F8A95EAF7292B9E
:1010B00028BB089584B38F6084BB82B1886182B9F4
:1010C000BDC090E0FC01F097E930F10508F046C0A2
:1010D000EA5BFF4F6DC185E085BB109285001092E1
:1010E000840029C085E015C085E008C085E085BB87
:1010F000109285001092840008C08AE085BB88EEBB
:1011000093E0909385008093840083EC99E022C063
:101110008AE085BB83EC99E09093850080938400FE
:1011200019C08AE00EC085E085BB83EC99E09093FE
:1011300085008093840010928700109286000895A5
:1011400085E085BB83EC99E09093850080938400D3
:1011500088EE93E09093870080938600089590E056
:10116000FC01F097E930F10508F049C0E15BFF4F61
:101170001FC185E085BB10928500109284002CC0B1
:1011800085E085BB88EE93E018C085E008C085E067
:1011900085BB109285001092840008C08AE085BB50
:1011A00088EE93E0909385008093840083EC99E02F
:1011B00022C08AE085BB83EC99E090938500809300
:1011C000840019C08AE00EC085E085BB83EC99E0FD
:1011D000909385008093840010928700109286007F
:1011E000089585E085BB83EC99E09093850080931A
:1011F000840088EE93E090938700809386000895A2
:1012000083B7846083BF83B7886083BF87B78260FA
:1012100087BF89EF81BF089583E08EBD089585B5AE
:10122000836085BD87E084BD87B7806487BF0895EC
:1012300015BC14BC87B78F7B87BF089582EA809363
:101240008B008BE180938A0083EC99E0909381007E
:1012500080938000089580917F0290918002A091F8
:101260008102B09182020196A11DB11D80937F027F
:1012700090938002A0938102B093820208956091BE
:101280007F02709180028091810290918202089584
:10129000E1E6F0E080818465808308951F93CF9319
:1012A000DF93EC01162FB8DF90916200612F70E0A0
:1012B00021E030E0A90101C0440F1A95EAF7842F1C
:1012C000809598239093620095E39A95F1F700003A
:1012D00090916200492B4093620095E39A95F1F753
:1012E000000090916200892380936200CB010196F7
:1012F00002C0220F331F8A95E2F780B190E082236B
:101300009323892BD1F31DBC1CBC80B190E08223B8
:101310009323892BD1F71EBC2CB53DB5220F331F6B
:10132000220F331F36952795A4E5B1E04AD020E17E
:1013300037E240E050E01AD039832883DF91CF9123
:101340001F910895AA1BBB1B51E107C0AA1FBB1F19
:10135000A617B70710F0A61BB70B881F991F5A9541
:10136000A9F780959095BC01CD010895A1E21A2EB0
:10137000AA1BBB1BFD010DC0AA1FBB1FEE1FFF1F39
:10138000A217B307E407F50720F0A21BB30BE40B89
:10139000F50B661F771F881F991F1A9469F76095D0
:1013A0007095809590959B01AC01BD01CF0108958A
:1013B000EE0FFF1F0024001C0BBE0790F691E02DDE
:1013C0000994A29FB001B39FC001A39F700D811D1E
:1013D0001124911DB29F700D811D1124911D08953E
:1013E000FB01DC0104C08D910190801921F4415072
:1013F0005040C8F7881B990B0895FB01DC01019050
:101400000D920020E1F70895FB01DC0141505040AE
:1014100030F08D910190801919F40020B9F7881BE4
:08142000990B0895F894FFCF29
:1014280020202020202020202020202020202000D4
:101438004C203A0046203A0052203A00566572691C
:101448006679204D6F646500566572696679204D2E
:101458006F64652000416464204D6F6465004164D9
:1014680064204D6F6465202020200044656C6574FD
:1014780065204D6F64650044656C657465204D6F2B
:1014880064652000506173730050617373202020DD
:10149800202020202020004661696C202020202068
:1014A8002020202000416464656400416464656410
:1014B8002020202020202020200041646465642012
:1014C8004661696C004164646564206661696C20EA
:1014D8002020200044656C657465640044656C6573
:1014E80074656420202020202020200044656C653D
:1014F800746564206661696C0044656C6574656434
:10150800206661696C2020200056616C7565203A60
:0E1518000044726976696E67204D6F6465004D
:00000001FF
